{
  "transactions": [
    {
      "hash": "0x836b0a3b8f9a68133c5a3c331387b70d4dcfefad5693110d5d60f4d29da08043",
      "transactionType": "CALL",
      "contractName": null,
      "contractAddress": "0xe900a9e0e76e1daed69f954f4f15dedeca382f02",
      "function": "changeSigner(address)",
      "arguments": [
        "0xfAC83e3eb856e9349bd999843dFB67b9719fA43A"
      ],
      "transaction": {
        "from": "0xa779fc675db318dab004ab8d538cb320d0013f42",
        "to": "0xe900a9e0e76e1daed69f954f4f15dedeca382f02",
        "gas": "0x10f36",
        "value": "0x0",
        "input": "0xaad2b723000000000000000000000000fac83e3eb856e9349bd999843dfb67b9719fa43a",
        "nonce": "0x1",
        "chainId": "0x7f7"
      },
      "additionalContracts": [],
      "isFixedGasLimit": false
    },
    {
      "hash": "0x2f343a2084fc60095f35f89a91c91599cc659d79ad3aac10aab99f3c3c08a4b1",
      "transactionType": "CALL",
      "contractName": null,
      "contractAddress": "0xe900a9e0e76e1daed69f954f4f15dedeca382f02",
      "function": "assignOperator(address,bool)",
      "arguments": [
        "0xfAC83e3eb856e9349bd999843dFB67b9719fA43A",
        "true"
      ],
      "transaction": {
        "from": "0xa779fc675db318dab004ab8d538cb320d0013f42",
        "to": "0xe900a9e0e76e1daed69f954f4f15dedeca382f02",
        "gas": "0x102b5",
        "value": "0x0",
        "input": "0x6732f32f000000000000000000000000fac83e3eb856e9349bd999843dfb67b9719fa43a0000000000000000000000000000000000000000000000000000000000000001",
        "nonce": "0x2",
        "chainId": "0x7f7"
      },
      "additionalContracts": [],
      "isFixedGasLimit": false
    }
  ],
  "receipts": [
    {
      "status": "0x1",
      "cumulativeGasUsed": "0xb972",
      "logs": [
        {
          "address": "0xe900a9e0e76e1daed69f954f4f15dedeca382f02",
          "topics": [
            "0xf4b0650db61027ac5b4ec7eb8ba223cf23715631228786676084b09a56b77861",
            "0x000000000000000000000000fac83e3eb856e9349bd999843dfb67b9719fa43a"
          ],
          "data": "0x",
          "blockHash": "0x32293873c98d3af2dbd9f74cff6693da8d29e6fafe534650e6f7349effb9b4d5",
          "blockNumber": "0xe465b",
          "transactionHash": "0x836b0a3b8f9a68133c5a3c331387b70d4dcfefad5693110d5d60f4d29da08043",
          "transactionIndex": "0x1",
          "logIndex": "0x0",
          "removed": false
        }
      ],
      "logsBloom": "0x00000000000000000000000020000000000000000000000000000000000000000000000000000000000000000000000000000000000000000000000000000000000000000000000000000000008000000000000080000000000000000000000000000000000000000000000000000000000000000000000000000000000000000000000000000000000000000000000001000000000000000000000000000080000000000000000000000000010000000000000000000000000000000000000000000000000000040000000000000000000000000000000000001000000000000000000000000000000000000020000000000000000000000000000000000000",
      "type": "0x2",
      "transactionHash": "0x836b0a3b8f9a68133c5a3c331387b70d4dcfefad5693110d5d60f4d29da08043",
      "transactionIndex": "0x1",
      "blockHash": "0x32293873c98d3af2dbd9f74cff6693da8d29e6fafe534650e6f7349effb9b4d5",
      "blockNumber": "0xe465b",
      "gasUsed": "0xb972",
      "effectiveGasPrice": "0x104c533c00",
      "from": "0xa779fc675db318dab004ab8d538cb320d0013f42",
      "to": "0xe900a9e0e76e1daed69f954f4f15dedeca382f02",
      "contractAddress": null,
      "gasUsedForL1": "0x0",
      "l1BlockNumber": "0x64b7e6"
    },
    {
      "status": "0x1",
      "cumulativeGasUsed": "0xbb4e",
      "logs": [
        {
          "address": "0xe900a9e0e76e1daed69f954f4f15dedeca382f02",
          "topics": [
            "0x715ad5ce61fc9595c7b415289d59cf203f23a94fa06f04af7e489a0a76e1fe26",
            "0x000000000000000000000000fac83e3eb856e9349bd999843dfb67b9719fa43a",
            "0x0000000000000000000000000000000000000000000000000000000000000001"
          ],
          "data": "0x",
          "blockHash": "0x6a7165f6d741b6aa69d11bb5d017286b2ea6736a6e29e862ff6f0e5e6ead0f05",
          "blockNumber": "0xe465c",
          "transactionHash": "0x2f343a2084fc60095f35f89a91c91599cc659d79ad3aac10aab99f3c3c08a4b1",
          "transactionIndex": "0x1",
          "logIndex": "0x0",
          "removed": false
        }
      ],
      "logsBloom": "0x00000000000000000000000020000000000000000000000000000000000000000000000000000000000000000000000000000000000000000000000000040000000000000000000000000000008000000000000080040000000000000000000000000000000000000000000000000000000000000000000000000000000000000000000000000000000000000000000001000000000000000000000000000000000000000000000000000000000000000000000000010000000000000000000000002000400000040000000000000000000000000000000000001000000040000000000000000000000000000000000000000000000000000000000000000000",
      "type": "0x2",
      "transactionHash": "0x2f343a2084fc60095f35f89a91c91599cc659d79ad3aac10aab99f3c3c08a4b1",
      "transactionIndex": "0x1",
      "blockHash": "0x6a7165f6d741b6aa69d11bb5d017286b2ea6736a6e29e862ff6f0e5e6ead0f05",
      "blockNumber": "0xe465c",
      "gasUsed": "0xbb4e",
      "effectiveGasPrice": "0x104c533c00",
      "from": "0xa779fc675db318dab004ab8d538cb320d0013f42",
      "to": "0xe900a9e0e76e1daed69f954f4f15dedeca382f02",
      "contractAddress": null,
      "gasUsedForL1": "0x0",
      "l1BlockNumber": "0x64b7e6"
    }
  ],
  "libraries": [],
  "pending": [],
  "returns": {},
  "timestamp": 1725028629,
  "chain": 2039,
  "commit": "b7c42bd"
}