{
  "transactions": [
    {
      "hash": "0x797c974d01065d6c7ac38163f4edc810c9e0ac739146c0412c15108dd17160e3",
      "transactionType": "CALL",
      "contractName": null,
      "contractAddress": "0x2e28b5cc90d8a9e4d661417568eb83bdd2df26c3",
      "function": "changeSigner(address)",
      "arguments": [
        "0xfAC83e3eb856e9349bd999843dFB67b9719fA43A"
      ],
      "transaction": {
        "from": "0xa779fc675db318dab004ab8d538cb320d0013f42",
        "to": "0x2e28b5cc90d8a9e4d661417568eb83bdd2df26c3",
        "gas": "0xa3c3",
        "value": "0x0",
        "input": "0xaad2b723000000000000000000000000fac83e3eb856e9349bd999843dfb67b9719fa43a",
        "nonce": "0x9",
        "chainId": "0x7f7"
      },
      "additionalContracts": [],
      "isFixedGasLimit": false
    },
    {
      "hash": "0xaedaf731251e3531df36c98f033c8c8fec6b9051b0d4b6beeeb02435ac8a5a7e",
      "transactionType": "CALL",
      "contractName": null,
      "contractAddress": "0x2e28b5cc90d8a9e4d661417568eb83bdd2df26c3",
      "function": "assignOperator(address,bool)",
      "arguments": [
        "0xfAC83e3eb856e9349bd999843dFB67b9719fA43A",
        "true"
      ],
      "transaction": {
        "from": "0xa779fc675db318dab004ab8d538cb320d0013f42",
        "to": "0x2e28b5cc90d8a9e4d661417568eb83bdd2df26c3",
        "gas": "0x1032e",
        "value": "0x0",
        "input": "0x6732f32f000000000000000000000000fac83e3eb856e9349bd999843dfb67b9719fa43a0000000000000000000000000000000000000000000000000000000000000001",
        "nonce": "0xa",
        "chainId": "0x7f7"
      },
      "additionalContracts": [],
      "isFixedGasLimit": false
    }
  ],
  "receipts": [
    {
      "status": "0x1",
      "cumulativeGasUsed": "0x7699",
      "logs": [
        {
          "address": "0x2e28b5cc90d8a9e4d661417568eb83bdd2df26c3",
          "topics": [
            "0xf4b0650db61027ac5b4ec7eb8ba223cf23715631228786676084b09a56b77861",
            "0x000000000000000000000000fac83e3eb856e9349bd999843dfb67b9719fa43a"
          ],
          "data": "0x",
          "blockHash": "0x0021951dcbe88dba89a9001d75513606b1b5c3cafae0392a183068500783c44f",
          "blockNumber": "0xe4dcd",
          "transactionHash": "0x797c974d01065d6c7ac38163f4edc810c9e0ac739146c0412c15108dd17160e3",
          "transactionIndex": "0x1",
          "logIndex": "0x0",
          "removed": false
        }
      ],
      "logsBloom": "0x00000000000000000000000020000000000000000000000000000000000000000000000000000000000000000000000000000000000000000000000000000000000000000800000000000010000000000000000080000000000000000000000000000000000000000000000000000000000000000000000000000000000000000000000000000000000000100000000000000000000000000000000000000080000000000000000000000000010000000000000000000000000000000000000000000000000000040000000000000000000000000000000000000000000000000000000000000000000000000020000000000000000000000000000000000000",
      "type": "0x2",
      "transactionHash": "0x797c974d01065d6c7ac38163f4edc810c9e0ac739146c0412c15108dd17160e3",
      "transactionIndex": "0x1",
      "blockHash": "0x0021951dcbe88dba89a9001d75513606b1b5c3cafae0392a183068500783c44f",
      "blockNumber": "0xe4dcd",
      "gasUsed": "0x7699",
      "effectiveGasPrice": "0x2e90edd000",
      "from": "0xa779fc675db318dab004ab8d538cb320d0013f42",
      "to": "0x2e28b5cc90d8a9e4d661417568eb83bdd2df26c3",
      "contractAddress": null,
      "gasUsedForL1": "0x9",
      "l1BlockNumber": "0x654a82"
    },
    {
      "status": "0x1",
      "cumulativeGasUsed": "0x13249",
      "logs": [
        {
          "address": "0x2e28b5cc90d8a9e4d661417568eb83bdd2df26c3",
          "topics": [
            "0x715ad5ce61fc9595c7b415289d59cf203f23a94fa06f04af7e489a0a76e1fe26",
            "0x000000000000000000000000fac83e3eb856e9349bd999843dfb67b9719fa43a",
            "0x0000000000000000000000000000000000000000000000000000000000000001"
          ],
          "data": "0x",
          "blockHash": "0x0021951dcbe88dba89a9001d75513606b1b5c3cafae0392a183068500783c44f",
          "blockNumber": "0xe4dcd",
          "transactionHash": "0xaedaf731251e3531df36c98f033c8c8fec6b9051b0d4b6beeeb02435ac8a5a7e",
          "transactionIndex": "0x2",
          "logIndex": "0x1",
          "removed": false
        }
      ],
      "logsBloom": "0x00000000000000000000000020000000000000000000000000000000000000000000000000000000000000000000000000000000000000000000000000040000000000000800000000000010000000000000000080040000000000000000000000000000000000000000000000000000000000000000000000000000000000000000000000000000000000100000000000000000000000000000000000000000000000000000000000000000000000000000000000010000000000000000000000002000400000040000000000000000000000000000000000000000000040000000000000000000000000000000000000000000000000000000000000000000",
      "type": "0x2",
      "transactionHash": "0xaedaf731251e3531df36c98f033c8c8fec6b9051b0d4b6beeeb02435ac8a5a7e",
      "transactionIndex": "0x2",
      "blockHash": "0x0021951dcbe88dba89a9001d75513606b1b5c3cafae0392a183068500783c44f",
      "blockNumber": "0xe4dcd",
      "gasUsed": "0xbbb0",
      "effectiveGasPrice": "0x2e90edd000",
      "from": "0xa779fc675db318dab004ab8d538cb320d0013f42",
      "to": "0x2e28b5cc90d8a9e4d661417568eb83bdd2df26c3",
      "contractAddress": null,
      "gasUsedForL1": "0xb",
      "l1BlockNumber": "0x654a82"
    }
  ],
  "libraries": [],
  "pending": [],
  "returns": {},
  "timestamp": 1725552878,
  "chain": 2039,
  "commit": "7fe7610"
}