{
  "transactions": [
    {
      "hash": "0xbd47cc34e833d4a36cf35ef0a8ed3447fec88c6441f647917931811797db483e",
      "transactionType": "CALL",
      "contractName": null,
      "contractAddress": "0x2e28b5cc90d8a9e4d661417568eb83bdd2df26c3",
      "function": "changeSigner(address)",
      "arguments": [
        "0xA779fC675Db318dab004Ab8D538CB320D0013F42"
      ],
      "transaction": {
        "from": "0xa779fc675db318dab004ab8d538cb320d0013f42",
        "to": "0x2e28b5cc90d8a9e4d661417568eb83bdd2df26c3",
        "gas": "0xa3c3",
        "value": "0x0",
        "input": "0xaad2b723000000000000000000000000a779fc675db318dab004ab8d538cb320d0013f42",
        "nonce": "0x6",
        "chainId": "0x7f7"
      },
      "additionalContracts": [],
      "isFixedGasLimit": false
    },
    {
      "hash": "0xe242dd6fc812568eeed33cc5b38bd321d2a40e974db60b89dbb6f22ec28dac95",
      "transactionType": "CALL",
      "contractName": null,
      "contractAddress": "0x2e28b5cc90d8a9e4d661417568eb83bdd2df26c3",
      "function": "assignOperator(address,bool)",
      "arguments": [
        "0xA779fC675Db318dab004Ab8D538CB320D0013F42",
        "true"
      ],
      "transaction": {
        "from": "0xa779fc675db318dab004ab8d538cb320d0013f42",
        "to": "0x2e28b5cc90d8a9e4d661417568eb83bdd2df26c3",
        "gas": "0x1032e",
        "value": "0x0",
        "input": "0x6732f32f000000000000000000000000a779fc675db318dab004ab8d538cb320d0013f420000000000000000000000000000000000000000000000000000000000000001",
        "nonce": "0x7",
        "chainId": "0x7f7"
      },
      "additionalContracts": [],
      "isFixedGasLimit": false
    }
  ],
  "receipts": [
    {
      "status": "0x1",
      "cumulativeGasUsed": "0x7690",
      "logs": [
        {
          "address": "0x2e28b5cc90d8a9e4d661417568eb83bdd2df26c3",
          "topics": [
            "0xf4b0650db61027ac5b4ec7eb8ba223cf23715631228786676084b09a56b77861",
            "0x000000000000000000000000a779fc675db318dab004ab8d538cb320d0013f42"
          ],
          "data": "0x",
          "blockHash": "0xd1480efbb9fba298e94bf77680f9402b076390a9a078b0db7430395bad37ca91",
          "blockNumber": "0xe4bca",
          "transactionHash": "0xbd47cc34e833d4a36cf35ef0a8ed3447fec88c6441f647917931811797db483e",
          "transactionIndex": "0x1",
          "logIndex": "0x0",
          "removed": false
        }
      ],
      "logsBloom": "0x00000000000000000000000000000000000000200000000000000000000000000000000000000000000000000000000000000000000000000000000000000000000000000800000000000010000000000000000000000000000000000000000000000000000000000000000000000000000000000000000000000000800000000000000000000000000000100000000000000000000000000000000000000080000000000000000000000000010000000000000000000000000000000000000000000000000000000000000000000000000000000000000000000000000000000000000000000000000000000020000000000040000000000000000000000000",
      "type": "0x2",
      "transactionHash": "0xbd47cc34e833d4a36cf35ef0a8ed3447fec88c6441f647917931811797db483e",
      "transactionIndex": "0x1",
      "blockHash": "0xd1480efbb9fba298e94bf77680f9402b076390a9a078b0db7430395bad37ca91",
      "blockNumber": "0xe4bca",
      "gasUsed": "0x7690",
      "effectiveGasPrice": "0x2e90edd000",
      "from": "0xa779fc675db318dab004ab8d538cb320d0013f42",
      "to": "0x2e28b5cc90d8a9e4d661417568eb83bdd2df26c3",
      "contractAddress": null,
      "gasUsedForL1": "0x0",
      "l1BlockNumber": "0x65271c"
    },
    {
      "status": "0x1",
      "cumulativeGasUsed": "0xbba5",
      "logs": [
        {
          "address": "0x2e28b5cc90d8a9e4d661417568eb83bdd2df26c3",
          "topics": [
            "0x715ad5ce61fc9595c7b415289d59cf203f23a94fa06f04af7e489a0a76e1fe26",
            "0x000000000000000000000000a779fc675db318dab004ab8d538cb320d0013f42",
            "0x0000000000000000000000000000000000000000000000000000000000000001"
          ],
          "data": "0x",
          "blockHash": "0xc1ec285420aa60ee16b064f14c53c53b942256bfa7dd1d100adfde10865e75d6",
          "blockNumber": "0xe4bcb",
          "transactionHash": "0xe242dd6fc812568eeed33cc5b38bd321d2a40e974db60b89dbb6f22ec28dac95",
          "transactionIndex": "0x1",
          "logIndex": "0x0",
          "removed": false
        }
      ],
      "logsBloom": "0x00000000000000000000000000000000000000200000000000000000000000000000000000000000000000000000000000000000000000000000000000040000000000000800000000000010000000000000000000040000000000000000000000000000000000000000000000000000000000000000000000000000800000000000000000000000000000100000000000000000000000000000000000000000000000000000000000000000000000000000000000010000000000000000000000002000400000000000000000000000000000000000000000000000000040000000000000000000000000000000000000000040000000000000000000000000",
      "type": "0x2",
      "transactionHash": "0xe242dd6fc812568eeed33cc5b38bd321d2a40e974db60b89dbb6f22ec28dac95",
      "transactionIndex": "0x1",
      "blockHash": "0xc1ec285420aa60ee16b064f14c53c53b942256bfa7dd1d100adfde10865e75d6",
      "blockNumber": "0xe4bcb",
      "gasUsed": "0xbba5",
      "effectiveGasPrice": "0x2e90edd000",
      "from": "0xa779fc675db318dab004ab8d538cb320d0013f42",
      "to": "0x2e28b5cc90d8a9e4d661417568eb83bdd2df26c3",
      "contractAddress": null,
      "gasUsedForL1": "0x0",
      "l1BlockNumber": "0x65271c"
    }
  ],
  "libraries": [],
  "pending": [],
  "returns": {},
  "timestamp": 1725421930,
  "chain": 2039,
  "commit": "8dec540"
}