{
  "transactions": [
    {
      "hash": "0x416e8b27e7fb6e102e114cf8a78e2a3d2a09ccb4777e38930823381f2e6f435a",
      "transactionType": "CALL",
      "contractName": null,
      "contractAddress": "0x100acd34938796aaad6a81528459492d35e4113e",
      "function": "changeSigner(address)",
      "arguments": [
        "0xA779fC675Db318dab004Ab8D538CB320D0013F42"
      ],
      "transaction": {
        "from": "0xa779fc675db318dab004ab8d538cb320d0013f42",
        "to": "0x100acd34938796aaad6a81528459492d35e4113e",
        "gas": "0xa3c3",
        "value": "0x0",
        "input": "0xaad2b723000000000000000000000000a779fc675db318dab004ab8d538cb320d0013f42",
        "nonce": "0x52",
        "chainId": "0xaa36a7"
      },
      "additionalContracts": [],
      "isFixedGasLimit": false
    },
    {
      "hash": "0x5b72852c87de4d614ee82f48eb1b9b9324eb06ed571a7a9e65b78c04b7ea0213",
      "transactionType": "CALL",
      "contractName": null,
      "contractAddress": "0x100acd34938796aaad6a81528459492d35e4113e",
      "function": "assignOperator(address,bool)",
      "arguments": [
        "0xA779fC675Db318dab004Ab8D538CB320D0013F42",
        "true"
      ],
      "transaction": {
        "from": "0xa779fc675db318dab004ab8d538cb320d0013f42",
        "to": "0x100acd34938796aaad6a81528459492d35e4113e",
        "gas": "0x1032e",
        "value": "0x0",
        "input": "0x6732f32f000000000000000000000000a779fc675db318dab004ab8d538cb320d0013f420000000000000000000000000000000000000000000000000000000000000001",
        "nonce": "0x53",
        "chainId": "0xaa36a7"
      },
      "additionalContracts": [],
      "isFixedGasLimit": false
    }
  ],
  "receipts": [
    {
      "status": "0x1",
      "cumulativeGasUsed": "0x14ec095",
      "logs": [
        {
          "address": "0x100acd34938796aaad6a81528459492d35e4113e",
          "topics": [
            "0xf4b0650db61027ac5b4ec7eb8ba223cf23715631228786676084b09a56b77861",
            "0x000000000000000000000000a779fc675db318dab004ab8d538cb320d0013f42"
          ],
          "data": "0x",
          "blockHash": "0x1ed3b7a6b5e17059d370af7c5982edb24496c72350ba200a60b8940628efaf28",
          "blockNumber": "0x6684b1",
          "transactionHash": "0x416e8b27e7fb6e102e114cf8a78e2a3d2a09ccb4777e38930823381f2e6f435a",
          "transactionIndex": "0x62",
          "logIndex": "0x8d",
          "removed": false
        }
      ],
      "logsBloom": "0x00000000000000000000000000000000000000200000000000000002000000000000000000000000000000000000000000000000000000000000000000000000000000000000000000000000000000000000000000000000000000000000000000000000000000000000000000000000000000000000000000000000800000000000000000000000000000000000000000000000000000000000000000000080000000000000000000000000010000000000000000000000000000000000000000000000000000000000000000000000000000000000000000000000000000000000000000000000000000000020000000000040000008000000000000002000",
      "type": "0x2",
      "transactionHash": "0x416e8b27e7fb6e102e114cf8a78e2a3d2a09ccb4777e38930823381f2e6f435a",
      "transactionIndex": "0x62",
      "blockHash": "0x1ed3b7a6b5e17059d370af7c5982edb24496c72350ba200a60b8940628efaf28",
      "blockNumber": "0x6684b1",
      "gasUsed": "0x7690",
      "effectiveGasPrice": "0x1090a2092",
      "from": "0xa779fc675db318dab004ab8d538cb320d0013f42",
      "to": "0x100acd34938796aaad6a81528459492d35e4113e",
      "contractAddress": null
    },
    {
      "status": "0x1",
      "cumulativeGasUsed": "0x14f7c3a",
      "logs": [
        {
          "address": "0x100acd34938796aaad6a81528459492d35e4113e",
          "topics": [
            "0x715ad5ce61fc9595c7b415289d59cf203f23a94fa06f04af7e489a0a76e1fe26",
            "0x000000000000000000000000a779fc675db318dab004ab8d538cb320d0013f42",
            "0x0000000000000000000000000000000000000000000000000000000000000001"
          ],
          "data": "0x",
          "blockHash": "0x1ed3b7a6b5e17059d370af7c5982edb24496c72350ba200a60b8940628efaf28",
          "blockNumber": "0x6684b1",
          "transactionHash": "0x5b72852c87de4d614ee82f48eb1b9b9324eb06ed571a7a9e65b78c04b7ea0213",
          "transactionIndex": "0x63",
          "logIndex": "0x8e",
          "removed": false
        }
      ],
      "logsBloom": "0x00000000000000000000000000000000000000200000000000000002000000000000000000000000000000000000000000000000000000000000000000040000000000000000000000000000000000000000000000040000000000000000000000000000000000000000000000000000000000000000000000000000800000000000000000000000000000000000000000000000000000000000000000000000000000000000000000000000000000000000000000010000000000000000000000002000400000000000000000000000000000000000000000000000000040000000000000000000000000000000000000000040000008000000000000002000",
      "type": "0x2",
      "transactionHash": "0x5b72852c87de4d614ee82f48eb1b9b9324eb06ed571a7a9e65b78c04b7ea0213",
      "transactionIndex": "0x63",
      "blockHash": "0x1ed3b7a6b5e17059d370af7c5982edb24496c72350ba200a60b8940628efaf28",
      "blockNumber": "0x6684b1",
      "gasUsed": "0xbba5",
      "effectiveGasPrice": "0x1090a2092",
      "from": "0xa779fc675db318dab004ab8d538cb320d0013f42",
      "to": "0x100acd34938796aaad6a81528459492d35e4113e",
      "contractAddress": null
    }
  ],
  "libraries": [],
  "pending": [],
  "returns": {},
  "timestamp": 1726711946,
  "chain": 11155111,
  "commit": "7fe7610"
}