{
  "transactions": [
    {
      "hash": "0xab5599b7a6817c1454a084b2bb14a6aec2a540cf952ecc9cb53dc2f84d715768",
      "transactionType": "CALL",
      "contractName": null,
      "contractAddress": "0x5a06811fb0ecf10b98ef4243d5b16ff9b0efbf0c",
      "function": "changeSigner(address)",
      "arguments": [
        "0xfAC83e3eb856e9349bd999843dFB67b9719fA43A"
      ],
      "transaction": {
        "from": "0xa779fc675db318dab004ab8d538cb320d0013f42",
        "to": "0x5a06811fb0ecf10b98ef4243d5b16ff9b0efbf0c",
        "gas": "0xa3c3",
        "value": "0x0",
        "input": "0xaad2b723000000000000000000000000fac83e3eb856e9349bd999843dfb67b9719fa43a",
        "nonce": "0x5c",
        "chainId": "0xaa36a7"
      },
      "additionalContracts": [],
      "isFixedGasLimit": false
    },
    {
      "hash": "0x74cd2dc5eb9900e5aea64f750e3ba583c383d5b0aaef5515e4daa240fa9e372e",
      "transactionType": "CALL",
      "contractName": null,
      "contractAddress": "0x5a06811fb0ecf10b98ef4243d5b16ff9b0efbf0c",
      "function": "assignOperator(address,bool)",
      "arguments": [
        "0xfAC83e3eb856e9349bd999843dFB67b9719fA43A",
        "true"
      ],
      "transaction": {
        "from": "0xa779fc675db318dab004ab8d538cb320d0013f42",
        "to": "0x5a06811fb0ecf10b98ef4243d5b16ff9b0efbf0c",
        "gas": "0x1032e",
        "value": "0x0",
        "input": "0x6732f32f000000000000000000000000fac83e3eb856e9349bd999843dfb67b9719fa43a0000000000000000000000000000000000000000000000000000000000000001",
        "nonce": "0x5d",
        "chainId": "0xaa36a7"
      },
      "additionalContracts": [],
      "isFixedGasLimit": false
    }
  ],
  "receipts": [
    {
      "status": "0x1",
      "cumulativeGasUsed": "0x8a007a",
      "logs": [
        {
          "address": "0x5a06811fb0ecf10b98ef4243d5b16ff9b0efbf0c",
          "topics": [
            "0xf4b0650db61027ac5b4ec7eb8ba223cf23715631228786676084b09a56b77861",
            "0x000000000000000000000000fac83e3eb856e9349bd999843dfb67b9719fa43a"
          ],
          "data": "0x",
          "blockHash": "0x5cbf8fadb6003d068c35db6ccd5f24710865db366f8bed95d04855a97945c121",
          "blockNumber": "0x669e9c",
          "transactionHash": "0xab5599b7a6817c1454a084b2bb14a6aec2a540cf952ecc9cb53dc2f84d715768",
          "transactionIndex": "0x34",
          "logIndex": "0x5b",
          "removed": false
        }
      ],
      "logsBloom": "0x00000000000000000080000020000000000000000000000000000000000000000000000000000000000000000000000000000000000000000000000000000000000000000000000000000000000000000000000080000000000000000000000000000000000000000000000000000000000000000000000000000000000000000000000000000002000000000000000000000000000000000000000000000080000000000000000000000000010000000000000000000040000000000000000000000000000000040000000000000000000000000000000000000000000000000000000000000000000000000020000000000000000000000000000000000000",
      "type": "0x2",
      "transactionHash": "0xab5599b7a6817c1454a084b2bb14a6aec2a540cf952ecc9cb53dc2f84d715768",
      "transactionIndex": "0x34",
      "blockHash": "0x5cbf8fadb6003d068c35db6ccd5f24710865db366f8bed95d04855a97945c121",
      "blockNumber": "0x669e9c",
      "gasUsed": "0x7690",
      "effectiveGasPrice": "0x21b9c0b25",
      "from": "0xa779fc675db318dab004ab8d538cb320d0013f42",
      "to": "0x5a06811fb0ecf10b98ef4243d5b16ff9b0efbf0c",
      "contractAddress": null
    },
    {
      "status": "0x1",
      "cumulativeGasUsed": "0x8abc1f",
      "logs": [
        {
          "address": "0x5a06811fb0ecf10b98ef4243d5b16ff9b0efbf0c",
          "topics": [
            "0x715ad5ce61fc9595c7b415289d59cf203f23a94fa06f04af7e489a0a76e1fe26",
            "0x000000000000000000000000fac83e3eb856e9349bd999843dfb67b9719fa43a",
            "0x0000000000000000000000000000000000000000000000000000000000000001"
          ],
          "data": "0x",
          "blockHash": "0x5cbf8fadb6003d068c35db6ccd5f24710865db366f8bed95d04855a97945c121",
          "blockNumber": "0x669e9c",
          "transactionHash": "0x74cd2dc5eb9900e5aea64f750e3ba583c383d5b0aaef5515e4daa240fa9e372e",
          "transactionIndex": "0x35",
          "logIndex": "0x5c",
          "removed": false
        }
      ],
      "logsBloom": "0x00000000000000000080000020000000000000000000000000000000000000000000000000000000000000000000000000000000000000000000000000040000000000000000000000000000000000000000000080040000000000000000000000000000000000000000000000000000000000000000000000000000000000000000000000000002000000000000000000000000000000000000000000000000000000000000000000000000000000000000000000010040000000000000000000002000400000040000000000000000000000000000000000000000000040000000000000000000000000000000000000000000000000000000000000000000",
      "type": "0x2",
      "transactionHash": "0x74cd2dc5eb9900e5aea64f750e3ba583c383d5b0aaef5515e4daa240fa9e372e",
      "transactionIndex": "0x35",
      "blockHash": "0x5cbf8fadb6003d068c35db6ccd5f24710865db366f8bed95d04855a97945c121",
      "blockNumber": "0x669e9c",
      "gasUsed": "0xbba5",
      "effectiveGasPrice": "0x21b9c0b25",
      "from": "0xa779fc675db318dab004ab8d538cb320d0013f42",
      "to": "0x5a06811fb0ecf10b98ef4243d5b16ff9b0efbf0c",
      "contractAddress": null
    }
  ],
  "libraries": [],
  "pending": [],
  "returns": {},
  "timestamp": 1726807337,
  "chain": 11155111,
  "commit": "c95effc"
}