{
  "transactions": [
    {
      "hash": "0xef5bef89a6e71cad6dbf333cfbaf76d2d2ebc0ec4758d75a319f61e36c990ff4",
      "transactionType": "CALL",
      "contractName": null,
      "contractAddress": "0x100acd34938796aaad6a81528459492d35e4113e",
      "function": "changeSigner(address)",
      "arguments": [
        "0xfAC83e3eb856e9349bd999843dFB67b9719fA43A"
      ],
      "transaction": {
        "from": "0xa779fc675db318dab004ab8d538cb320d0013f42",
        "to": "0x100acd34938796aaad6a81528459492d35e4113e",
        "gas": "0xa3c3",
        "value": "0x0",
        "input": "0xaad2b723000000000000000000000000fac83e3eb856e9349bd999843dfb67b9719fa43a",
        "nonce": "0x55",
        "chainId": "0xaa36a7"
      },
      "additionalContracts": [],
      "isFixedGasLimit": false
    },
    {
      "hash": "0xec632e7354ec260a288db03ab3220f3a933339b28def423c08db9dea5e14217d",
      "transactionType": "CALL",
      "contractName": null,
      "contractAddress": "0x100acd34938796aaad6a81528459492d35e4113e",
      "function": "assignOperator(address,bool)",
      "arguments": [
        "0xfAC83e3eb856e9349bd999843dFB67b9719fA43A",
        "true"
      ],
      "transaction": {
        "from": "0xa779fc675db318dab004ab8d538cb320d0013f42",
        "to": "0x100acd34938796aaad6a81528459492d35e4113e",
        "gas": "0x1032e",
        "value": "0x0",
        "input": "0x6732f32f000000000000000000000000fac83e3eb856e9349bd999843dfb67b9719fa43a0000000000000000000000000000000000000000000000000000000000000001",
        "nonce": "0x56",
        "chainId": "0xaa36a7"
      },
      "additionalContracts": [],
      "isFixedGasLimit": false
    }
  ],
  "receipts": [
    {
      "status": "0x1",
      "cumulativeGasUsed": "0xabd7d5",
      "logs": [
        {
          "address": "0x100acd34938796aaad6a81528459492d35e4113e",
          "topics": [
            "0xf4b0650db61027ac5b4ec7eb8ba223cf23715631228786676084b09a56b77861",
            "0x000000000000000000000000fac83e3eb856e9349bd999843dfb67b9719fa43a"
          ],
          "data": "0x",
          "blockHash": "0x004e0e7fefe4f9a56e62cbda3d17707e2beb9ed58bcce9df6180597352b04495",
          "blockNumber": "0x6684b8",
          "transactionHash": "0xef5bef89a6e71cad6dbf333cfbaf76d2d2ebc0ec4758d75a319f61e36c990ff4",
          "transactionIndex": "0x51",
          "logIndex": "0x8e",
          "removed": false
        }
      ],
      "logsBloom": "0x00000000000000000000000020000000000000000000000000000002000000000000000000000000000000000000000000000000000000000000000000000000000000000000000000000000000000000000000080000000000000000000000000000000000000000000000000000000000000000000000000000000000000000000000000000000000000000000000000000000000000000000000000000080000000000000000000000000010000000000000000000000000000000000000000000000000000040000000000000000000000000000000000000000000000000000000000000000000000000020000000000000000008000000000000002000",
      "type": "0x2",
      "transactionHash": "0xef5bef89a6e71cad6dbf333cfbaf76d2d2ebc0ec4758d75a319f61e36c990ff4",
      "transactionIndex": "0x51",
      "blockHash": "0x004e0e7fefe4f9a56e62cbda3d17707e2beb9ed58bcce9df6180597352b04495",
      "blockNumber": "0x6684b8",
      "gasUsed": "0x7690",
      "effectiveGasPrice": "0x14c10502b",
      "from": "0xa779fc675db318dab004ab8d538cb320d0013f42",
      "to": "0x100acd34938796aaad6a81528459492d35e4113e",
      "contractAddress": null
    },
    {
      "status": "0x1",
      "cumulativeGasUsed": "0xac937a",
      "logs": [
        {
          "address": "0x100acd34938796aaad6a81528459492d35e4113e",
          "topics": [
            "0x715ad5ce61fc9595c7b415289d59cf203f23a94fa06f04af7e489a0a76e1fe26",
            "0x000000000000000000000000fac83e3eb856e9349bd999843dfb67b9719fa43a",
            "0x0000000000000000000000000000000000000000000000000000000000000001"
          ],
          "data": "0x",
          "blockHash": "0x004e0e7fefe4f9a56e62cbda3d17707e2beb9ed58bcce9df6180597352b04495",
          "blockNumber": "0x6684b8",
          "transactionHash": "0xec632e7354ec260a288db03ab3220f3a933339b28def423c08db9dea5e14217d",
          "transactionIndex": "0x52",
          "logIndex": "0x8f",
          "removed": false
        }
      ],
      "logsBloom": "0x00000000000000000000000020000000000000000000000000000002000000000000000000000000000000000000000000000000000000000000000000040000000000000000000000000000000000000000000080040000000000000000000000000000000000000000000000000000000000000000000000000000000000000000000000000000000000000000000000000000000000000000000000000000000000000000000000000000000000000000000000010000000000000000000000002000400000040000000000000000000000000000000000000000000040000000000000000000000000000000000000000000000008000000000000002000",
      "type": "0x2",
      "transactionHash": "0xec632e7354ec260a288db03ab3220f3a933339b28def423c08db9dea5e14217d",
      "transactionIndex": "0x52",
      "blockHash": "0x004e0e7fefe4f9a56e62cbda3d17707e2beb9ed58bcce9df6180597352b04495",
      "blockNumber": "0x6684b8",
      "gasUsed": "0xbba5",
      "effectiveGasPrice": "0x14c10502b",
      "from": "0xa779fc675db318dab004ab8d538cb320d0013f42",
      "to": "0x100acd34938796aaad6a81528459492d35e4113e",
      "contractAddress": null
    }
  ],
  "libraries": [],
  "pending": [],
  "returns": {},
  "timestamp": 1726712041,
  "chain": 11155111,
  "commit": "7fe7610"
}